{
  "contractName": "Campaign",
  "abi": [
    {
      "constant": true,
      "inputs": [],
      "name": "isSuccess",
      "outputs": [
        {
          "name": "isIndeed",
          "type": "bool"
        }
      ],
      "payable": false,
      "stateMutability": "view",
      "type": "function"
    },
    {
      "constant": false,
      "inputs": [],
      "name": "sendRefunds",
      "outputs": [
        {
          "name": "success",
          "type": "bool"
        }
      ],
      "payable": false,
      "stateMutability": "nonpayable",
      "type": "function"
    },
    {
      "constant": true,
      "inputs": [],
      "name": "refundsSent",
      "outputs": [
        {
          "name": "",
          "type": "bool"
        }
      ],
      "payable": false,
      "stateMutability": "view",
      "type": "function"
    },
    {
      "constant": false,
      "inputs": [],
      "name": "withdrawFunds",
      "outputs": [
        {
          "name": "success",
          "type": "bool"
        }
      ],
      "payable": false,
      "stateMutability": "nonpayable",
      "type": "function"
    },
    {
      "constant": true,
      "inputs": [],
      "name": "deadline",
      "outputs": [
        {
          "name": "",
          "type": "uint256"
        }
      ],
      "payable": false,
      "stateMutability": "view",
      "type": "function"
    },
    {
      "constant": true,
      "inputs": [],
      "name": "goal",
      "outputs": [
        {
          "name": "",
          "type": "uint256"
        }
      ],
      "payable": false,
      "stateMutability": "view",
      "type": "function"
    },
    {
      "constant": true,
      "inputs": [
        {
          "name": "",
          "type": "uint256"
        }
      ],
      "name": "fundersStructs",
      "outputs": [
        {
          "name": "funder",
          "type": "address"
        },
        {
          "name": "amount",
          "type": "uint256"
        }
      ],
      "payable": false,
      "stateMutability": "view",
      "type": "function"
    },
    {
      "constant": true,
      "inputs": [],
      "name": "fundsRaised",
      "outputs": [
        {
          "name": "",
          "type": "uint256"
        }
      ],
      "payable": false,
      "stateMutability": "view",
      "type": "function"
    },
    {
      "constant": true,
      "inputs": [],
      "name": "hasFailed",
      "outputs": [
        {
          "name": "hasIndeed",
          "type": "bool"
        }
      ],
      "payable": false,
      "stateMutability": "view",
      "type": "function"
    },
    {
      "constant": true,
      "inputs": [],
      "name": "owner",
      "outputs": [
        {
          "name": "",
          "type": "address"
        }
      ],
      "payable": false,
      "stateMutability": "view",
      "type": "function"
    },
    {
      "constant": false,
      "inputs": [],
      "name": "contribute",
      "outputs": [
        {
          "name": "success",
          "type": "bool"
        }
      ],
      "payable": true,
      "stateMutability": "payable",
      "type": "function"
    },
    {
      "inputs": [
        {
          "name": "campaignDuration",
          "type": "uint256"
        },
        {
          "name": "campaignGoal",
          "type": "uint256"
        }
      ],
      "payable": false,
      "stateMutability": "nonpayable",
      "type": "constructor"
    },
    {
      "anonymous": false,
      "inputs": [
        {
          "indexed": false,
          "name": "sender",
          "type": "address"
        },
        {
          "indexed": false,
          "name": "amount",
          "type": "uint256"
        }
      ],
      "name": "LogContribution",
      "type": "event"
    },
    {
      "anonymous": false,
      "inputs": [
        {
          "indexed": false,
          "name": "funder",
          "type": "address"
        },
        {
          "indexed": false,
          "name": "amount",
          "type": "uint256"
        }
      ],
      "name": "LogRefundSent",
      "type": "event"
    },
    {
      "anonymous": false,
      "inputs": [
        {
          "indexed": false,
          "name": "beneficiary",
          "type": "address"
        },
        {
          "indexed": false,
          "name": "amount",
          "type": "uint256"
        }
      ],
      "name": "LogWithdrawal",
      "type": "event"
    }
  ],
  "bytecode": "0x6060604052341561000f57600080fd5b604051604080610a6b83398101604052808051906020019091908051906020019091905050336000806101000a81548173ffffffffffffffffffffffffffffffffffffffff021916908373ffffffffffffffffffffffffffffffffffffffff1602179055508143016001819055508060028190555050506109d6806100956000396000f3006060604052600436106100af576000357c0100000000000000000000000000000000000000000000000000000000900463ffffffff1680630b6c754b146100b4578063141b7169146100e1578063158c98751461010e57806324600fc31461013b57806329dcb0cf14610168578063401938831461019157806361023f78146101ba5780636681b9fd14610224578063708b1fed1461024d5780638da5cb5b1461027a578063d7bb99ba146102cf575b600080fd5b34156100bf57600080fd5b6100c76102f1565b604051808215151515815260200191505060405180910390f35b34156100ec57600080fd5b6100f4610300565b604051808215151515815260200191505060405180910390f35b341561011957600080fd5b61012161053e565b604051808215151515815260200191505060405180910390f35b341561014657600080fd5b61014e610551565b604051808215151515815260200191505060405180910390f35b341561017357600080fd5b61017b6106d1565b6040518082815260200191505060405180910390f35b341561019c57600080fd5b6101a46106d7565b6040518082815260200191505060405180910390f35b34156101c557600080fd5b6101db60048080359060200190919050506106dd565b604051808373ffffffffffffffffffffffffffffffffffffffff1673ffffffffffffffffffffffffffffffffffffffff1681526020018281526020019250505060405180910390f35b341561022f57600080fd5b610237610730565b6040518082815260200191505060405180910390f35b341561025857600080fd5b610260610736565b604051808215151515815260200191505060405180910390f35b341561028557600080fd5b61028d610751565b604051808273ffffffffffffffffffffffffffffffffffffffff1673ffffffffffffffffffffffffffffffffffffffff16815260200191505060405180910390f35b6102d7610776565b604051808215151515815260200191505060405180910390f35b60006002546003541015905090565b60008060008060009054906101000a900473ffffffffffffffffffffffffffffffffffffffff1673ffffffffffffffffffffffffffffffffffffffff163373ffffffffffffffffffffffffffffffffffffffff1614151561036057600080fd5b610368610736565b151561037357600080fd5b600460009054906101000a900460ff1615151561038f57600080fd5b6005805490509150600090505b8181101561051a576005818154811015156103b357fe5b906000526020600020906002020160000160009054906101000a900473ffffffffffffffffffffffffffffffffffffffff1673ffffffffffffffffffffffffffffffffffffffff166108fc60058381548110151561040d57fe5b9060005260206000209060020201600101549081150290604051600060405180830381858888f19350505050151561044457600080fd5b7fdd896e09a507baf21c108627cf41469f315fb779fe323f5e1c6154fd5d869e6960058281548110151561047457fe5b906000526020600020906002020160000160009054906101000a900473ffffffffffffffffffffffffffffffffffffffff166005838154811015156104b557fe5b906000526020600020906002020160010154604051808373ffffffffffffffffffffffffffffffffffffffff1673ffffffffffffffffffffffffffffffffffffffff1681526020018281526020019250505060405180910390a180600101905061039c565b6001600460006101000a81548160ff02191690831515021790555060019250505090565b600460009054906101000a900460ff1681565b6000806000809054906101000a900473ffffffffffffffffffffffffffffffffffffffff1673ffffffffffffffffffffffffffffffffffffffff163373ffffffffffffffffffffffffffffffffffffffff161415156105af57600080fd5b6105b76102f1565b15156105c257600080fd5b3073ffffffffffffffffffffffffffffffffffffffff163190506000809054906101000a900473ffffffffffffffffffffffffffffffffffffffff1673ffffffffffffffffffffffffffffffffffffffff166108fc829081150290604051600060405180830381858888f19350505050151561063d57600080fd5b7fb4214c8c54fc7442f36d3682f59aebaf09358a4431835b30efb29d52cf9e1e916000809054906101000a900473ffffffffffffffffffffffffffffffffffffffff1682604051808373ffffffffffffffffffffffffffffffffffffffff1673ffffffffffffffffffffffffffffffffffffffff1681526020018281526020019250505060405180910390a1600191505090565b60015481565b60025481565b6005818154811015156106ec57fe5b90600052602060002090600202016000915090508060000160009054906101000a900473ffffffffffffffffffffffffffffffffffffffff16908060010154905082565b60035481565b600060025460035410801561074c575060015443115b905090565b6000809054906101000a900473ffffffffffffffffffffffffffffffffffffffff1681565b60006107806108fa565b60003411151561078f57600080fd5b6107976102f1565b1515156107a357600080fd5b6107ab610736565b1515156107b757600080fd5b3460036000828254019250508190555033816000019073ffffffffffffffffffffffffffffffffffffffff16908173ffffffffffffffffffffffffffffffffffffffff1681525050348160200181815250506005805480600101828161081d919061092a565b9160005260206000209060020201600083909190915060008201518160000160006101000a81548173ffffffffffffffffffffffffffffffffffffffff021916908373ffffffffffffffffffffffffffffffffffffffff160217905550602082015181600101555050507f370510fa7e8c74204b8d2fd52b7a0837e535ea0c1491fd4e13730ce825e405243334604051808373ffffffffffffffffffffffffffffffffffffffff1673ffffffffffffffffffffffffffffffffffffffff1681526020018281526020019250505060405180910390a1600191505090565b6040805190810160405280600073ffffffffffffffffffffffffffffffffffffffff168152602001600081525090565b81548183558181151161095757600202816002028360005260206000209182019101610956919061095c565b5b505050565b6109a791905b808211156109a357600080820160006101000a81549073ffffffffffffffffffffffffffffffffffffffff0219169055600182016000905550600201610962565b5090565b905600a165627a7a723058204c0f0652af31b0960fb0b1788e6374747d08b314109c3b04730d30b4b5bcf3b10029",
  "source": "// Contract Factory Practice\n\npragma solidity ^0.4.6;\n\ncontract Campaign {\n  address public owner;\n  uint public deadline;\n  uint public goal;\n  uint public fundsRaised;\n  bool public refundsSent;\n\n  struct FunderStruct {\n    address funder;\n    uint amount;\n  }\n\n  FunderStruct[] public fundersStructs;\n\n  event LogContribution(address sender, uint amount);\n  event LogRefundSent(address funder, uint amount);\n  event LogWithdrawal(address beneficiary, uint amount);\n\n  function Campaign(uint campaignDuration, uint campaignGoal) \n  public\n  {\n    owner = msg.sender;\n    deadline = block.number + campaignDuration;\n    goal = campaignGoal;\n  }\n\n  function isSuccess()\n  public\n  constant\n  returns (bool isIndeed)\n  {\n    return (fundsRaised >= goal);\n  }\n\n  function hasFailed()\n  public\n  constant\n  returns (bool hasIndeed)\n  {\n    return (fundsRaised < goal && block.number > deadline);\n  }\n\n  function contribute()\n  public\n  payable\n  returns (bool success)\n  {\n    require(msg.value > 0);\n    require(!isSuccess());\n    require(!hasFailed());\n    fundsRaised += msg.value;\n    FunderStruct memory newFunder;\n    newFunder.funder = msg.sender;\n    newFunder.amount = msg.value;\n    fundersStructs.push(newFunder);\n    LogContribution(msg.sender, msg.value);\n    return true;\n  }\n\n  function withdrawFunds()\n  public\n  returns (bool success)\n  {\n    require(msg.sender == owner);\n    require(isSuccess());\n    uint amount = this.balance;\n    owner.transfer(amount);\n    LogWithdrawal(owner, amount);\n    return true;\n  }\n\n  function sendRefunds()\n  public\n  returns (bool success)\n  {\n    require(msg.sender == owner);\n    require(hasFailed());\n    require(!refundsSent);\n\n    uint funderCount = fundersStructs.length;\n    for(uint i=0; i < funderCount; ++i) {\n      fundersStructs[i].funder.transfer(fundersStructs[i].amount);\n      LogRefundSent(fundersStructs[i].funder, fundersStructs[i].amount);\n    }\n    refundsSent = true;\n    return true;\n  }\n}\n",
  "sourcePath": "/home/naps62/b9lab-course/4.2-truffle/contracts/Campaign.sol",
  "compiler": {
    "name": "solc",
    "version": "0.4.18+commit.9cf6e910.Emscripten.clang"
  },
  "schemaVersion": "1.0.1",
  "updatedAt": "2017-12-05T18:18:33.499Z"
}